:101000000000042009130000311300003313000016
:1010100035130000371300003913000000000000F2
:101020000000000000000000000000008D1C000017
:101030003D130000000000003F130000692900007C
:10104000AD23000043130000FD2500004313000002
:1010500043130000A12000004313000043130000CD
:1010600091250000A5250000431300004313000054
:1010700043130000A52700004313000043130000A2
:101080004313000043130000431300004313000008
:1010900043130000431300004313000043130000F8
:1010A000431300004313000043130000B925000060
:1010B0004313000043130000000000000000000084
:1010C00043130000431300004313000043130000C8
:1010D0004313000043130000431300005128000095
:1010E00043130000431300004313000000000000FE
:1010F0000000000043130000000000004313000044
:1011000000000000000000000000000000000000DF
:1011100000000000000000000000000000000000CF
:1011200000000000000000000000000000000000BF
:1011300000000000000000000000000000000000AF
:10114000000000000000000000000000000000009F
:10115000000000000000000000000000000000008F
:10116000000000000000000000000000000000007F
:10117000000000000000000000000000000000006F
:10118000000000000000000000000000000000005F
:10119000000000000000000000000000000000004F
:1011A000000000000000000000000000000000003F
:1011B000000000000000000000000000000000002F
:1011C000000000000000000000000000000000001F
:1011D000000000000000000000000000000000000F
:1011E00000000000000000000000000000000000FF
:1011F00000000000000000000000000000000000EF
:101200000348044B834202D0034B03B11847704795
:101210005001002050010020000000000548064B4E
:101220001B1AD90F01EBA301491002D0034B03B1E4
:1012300018477047500100205001002000000000B6
:1012400010B5064C237843B9FFF7DAFF044B13B10E
:101250000448AFF300800123237010BD500100202B
:10126000000000005047020008B5054B1BB10549BE
:101270000548AFF30080BDE80840FFF7CFBF00BFCF
:10128000000000005401002050470200A3F5803AFE
:10129000704700BF174B002B08BF134B9D46FFF74D
:1012A000F5FF00218B460F461348144A121A11F01D
:1012B0005FFA0E4B002B00D098470D4B002B00D04F
:1012C00098470020002104000D000D48002802D09E
:1012D0000C48AFF3008010F015FB2000290001F04E
:1012E00095FC10F0FDFA00BF0000080000000000AF
:1012F000000000000000042050010020DC46002017
:1013000000000000000000000649074A074B9B1A36
:1013100003DD043BC858D050FBDC00F037F8FFF782
:10132000B9FF0000BC470200080000205001002067
:10133000FEE7FEE7FEE7FEE7FEE7FEE7FEE7FEE785
:10134000FEE7FEE74FF08053D3F83001A0F1080329
:1013500058425841704700004FF08053D3F8302175
:10136000082A06D1D3F83431052B02D8024AD05CC2
:1013700070470020704700BFB61E0200024AD2F834
:101380000034002BFBD0704700E0014010B5FFF7A0
:10139000D9FF40B14FF080430022C3F80C21C3F8BD
:1013A0001021C3F83825FFF7CDFF002846D04FF0B5
:1013B0008052654BD2F80414C3F82015D2F80814F3
:1013C000C3F82415D2F80C14C3F82815D2F8101459
:1013D000C3F82C15D2F81414C3F83015D2F8181429
:1013E000C3F83415D2F81C14C3F84015D2F82014F1
:1013F000C3F84415D2F82414C3F84815D2F82814B9
:10140000C3F84C15D2F82C14C3F85015D2F8301488
:10141000C3F85415D2F83414C3F86015D2F8381450
:10142000C3F86415D2F83C14C3F86815D2F8401418
:10143000C3F86C15D2F84424C3F87025FFF78CFF6D
:1014400018B1424B424AC3F88C26FFF785FF18B10A
:10145000404BFB22C3F81825FFF77EFF70B14FF019
:1014600080414FF08053D1F8E42ED3F8583222F067
:101470000F0203F00F031343C1F8E43EFFF76CFFC4
:1014800020B1354B4FF40072C3F84026FFF75AFFE6
:1014900048B14FF08043D3F80024D20744BF6FF027
:1014A0000102C3F800242D4AD2F8883043F47003B7
:1014B000C2F88830BFF34F8FBFF36F8F4FF0805368
:1014C000D3F83021082A0ED1D3F83431052B02D8B5
:1014D000234AD35C3BB14FF01023D3F808224FF0DE
:1014E0008043C3F858254FF01023D3F80022002A78
:1014F00003DBD3F80432002B22DA1A4901234FF020
:101500001020C1F804351224FFF738FFC0F800425C
:10151000FFF734FFC0F80442FFF730FF0023C1F8A3
:101520000435FFF72BFFBFF34F8F0C490E4BCA68F2
:1015300002F4E0621343CB60BFF34F8F00BFFDE7BF
:101540000A4B0B4A1A6010BD00C00040005000401A
:101550004881030000F000400090024000ED00E0F0
:10156000B01E020000E001400400FA05080000205F
:101570000090D00310B5034653E8000F0A4643E835
:10158000002494F0000FF7D110BD10B5034653E8C6
:10159000002F42EA010043E8000494F0000FF6D166
:1015A00010BD10B5034653E8000F00EA010243E8FE
:1015B000002494F0000FF6D110BD10B5034653E897
:1015C000002F02EB010043E8000494F0000FF6D175
:1015D00010BD10B5034653E8002FA2EB010043E80D
:1015E000000494F0000FF6D110BD0121FFF7CDBF2C
:1015F0000021FFF7D6BF10B590B1D0E901230168F3
:101600009B1ADBB20A60013BDBB2FF2B026802D1FE
:101610000020107110BD11684C1C14600B70F2E7B3
:101620000E20F7E738B50446002000F08FFB226853
:10163000616813688B4215D9591E116013F8013C7B
:10164000228AE56802FB03552268A36811685B1AC9
:101650001179DBB2994200D21371002000F078FBBF
:10166000284638BD0025F8E738B5054600200C4669
:1016700000F06CFB2A681368591C1160EA68A41A10
:101680002A8AB4FBF2F41C70BDE83840002000F058
:101690005FBB7047027812F0040316D002F0030318
:1016A000012B03D0022B09D0012070470A68008863
:1016B0000232C0F3831002440A60F5E70B684288E7
:1016C000023303EB92130B60EEE7184670470000FD
:1016D0002DE9F04F414C884685B00546871C002017
:1016E000164600F033FB6268C8F80020A36803F5D3
:1016F00080739B1A04F21C4804F5836A04F21449AF
:10170000BB4217D30021002E63D005F00F05AD01B9
:1017100045F0050565F30F016368DAB203323B4417
:10172000002044F82210636000F012FB012005B095
:10173000BDE8F08F01214046FFF73FFF5046FFF71D
:1017400054FF4846FFF751FFA0680090C0B2033035
:1017500004EB80006946FFF79DFF20BB009BDAB2D7
:1017600004EB8202D16801919A1C0133DBB204EBD5
:1017700083030092D3F80CB001F00303012B20D0B7
:10178000022B13D083464846FFF732FF08B1009B77
:10179000A36059464046FFF710FFA368626803F54F
:1017A00080739B1AACE79DF80000D0E7BDF80630C7
:1017B000C3F3891303334FEA1B4B02EB93030093EC
:1017C000E1E7BDF80430C3F383134FEA1B4B134426
:1017D000F5E7AD0545F006019EE700BF3C0200209D
:1017E000064B074810B501221A7000F0B2F9044602
:1017F00010B9044800F010FA204610BD3C02002049
:10180000A0470200D41E0200034BD3E90130C31AE3
:1018100058425841704700BF3C0200202DE9F04378
:1018200085B0FFF7F1FF0546002840F0E280724CDA
:10183000C4F81804BFF34F8FA3680093DBB20333DF
:1018400004EB83006946FFF725FF009B18B1D4F82D
:101850001824002A5CD0DAB29F1C013304EB820208
:10186000DBB204EB8303D268DB68029302F003036C
:10187000022B0192009756D1BDF806305F48C3F3A2
:1018800089184646502E28BF502666F38F1306F15E
:101890000801ADF8063000F074F90546002800F0A4
:1018A000938000F09DF9002301A90822284600F04A
:1018B000A9F9FB43DBB20133F9B20331B6EB830F75
:1018C0004FEA830904EB81012AD908234A46A6EB93
:1018D0000906284600F096F9F6B2494909F10803CD
:1018E000324608F10308284607EB980700F08AF90A
:1018F0000097D4F81834D4F81064002B53D028463D
:1019000000F072F9FFF780FF80F00100C5B203E03C
:1019100062689A4292D8A260284605B0BDE8F0837A
:1019200008233246DDE7012B4ED1BDF804303348A1
:10193000C3F38311062928BF062161F389130231FD
:1019400001F00F018900ADF8043000F01AF90546E6
:10195000002839D000F044F90023082201A92846C4
:1019600000F050F90026BDF80420C2F38312B30042
:10197000964203F10803BCD200994A1CC9B2033154
:10198000009204EB81010422284600F03BF9013665
:10199000E9E7F3685B7923B1336829461B68304671
:1019A0009847F3681E68002EF3D1284600F01CF912
:1019B000304600F0CBF9D4F818340BB9009BA36083
:1019C000002000F0C5F99DE7D4F8104454B90D4B40
:1019D0000D480E49C01AC008000440F0020000F093
:1019E0005DF88FE7236820469B689847E3681C688A
:1019F000ECE7002590E700BF3C020020A047020072
:101A0000480200206047020088470200BC1E020016
:101A10002DE9F34704460E46924601A901221846D5
:101A20009946FFF755FE1B4F10B3019D4FF000087C
:101A3000AA1CC84508EB020123D117480021FFF773
:101A400099FD80F31000000440EA1440E4006B1C90
:101A500004F03804DBB2EDB244F0010407EB830379
:101A6000033544EA881444EA8624D86047F82540C0
:101A70003B781BB1FFF7D2FE0028FBD102B0BDE8D6
:101A8000F087C9B207EB81015AF82830CB6008F122
:101A90000108CEE73C0200205806002000231A4629
:101AA000FFF7B6BF38B5084B0125D3F810441D70B9
:101AB00004B938BDE3685D71236820465B689847C8
:101AC000E3681C68F4E700BF3C0200202DE9F84FF2
:101AD000B0F806A04579D2F800B09DF828900AFB2E
:101AE00005F5043D88460BEB0301A94203F104040C
:101AF00088BFA5EB030BB4FBFAF607460AFB1644B6
:101B0000C2F800B04EB9AAEB04055D4528BF5D469A
:101B1000BBF1000F04D1BDE8F88F3F68013EF1E74B
:101B2000043408EB06003C442A46B9F1000F0DD0FE
:101B30002146ABEB050B10F0B3FBDA452E443F68B2
:101B400055464FF0000428BF5D46E1E701462046B8
:101B5000EFE7FFF750BDF8B546790146721E05461E
:101B6000002393422D6803D30024A64202D8F8BD77
:101B70000133F6E70F682846FFF776FD0134394652
:101B8000F3E72DE9F843CD1C068A0746FFF74AFD27
:101B9000043E35440446B5FBF6F5F0B14FF48073CE
:101BA000EDB28380C680013D076081464FF000089A
:101BB000A84512D23846FFF735FD064648B163798D
:101BC0000133637108F10108C9F80000076081461C
:101BD000EEE72046FFF7BFFF34462046BDE8F88316
:101BE00001210430FFF7E9BC10B50121044604309F
:101BF000FFF7EFFCC0B220B92046BDE81040FFF768
:101C0000AABF10BD1FB503920022009203AAFFF7DE
:101C10005DFF05B05DF804FB826800239360826875
:101C20001361826853618268D360826853608268FE
:101C30001360704770B5134B134A0C21D21AB2FBD4
:101C4000F1F2816911F8025C04462DB900690021A6
:101C5000914204D1012010E04FF0FF30F7E71E68F9
:101C6000AE420CD1461C02D05E68864207D19D6808
:101C7000D4E90001D4E90223A847206070BD0131F6
:101C80000C33E5E754470200604702001EF0040FE2
:101C90000CBFEFF30880EFF30980FFF7CBBF00BF65
:101CA00038B572B6FFF7FEFEFFF7B8FD0028FBD18E
:101CB000104B114C114D1249E41AE408240444F06D
:101CC0000100FFF7EBFED5F8F030DB0700D500BED2
:101CD0000C4944F00200FFF7E1FEBFF34F8FEA68C2
:101CE000094B02F4E0621343EB60BFF34F8F00BF78
:101CF000FDE700BF604702008847020000ED00E0FA
:101D0000E01E0200EC1E02000400FA051FB50021CF
:101D1000039001AA44F20100CDE90111FFF7C0FFD1
:101D200005B05DF804FB000072B6024A1368013387
:101D300013607047F4060020034A1368013B1360E8
:101D400003B962B6704700BFF4060020FFF7ECBF8E
:101D5000FFF7F2BF074B1B5C1F2B86BF064903F042
:101D60001F034FF0A041012202FA03F3C1F80C3522
:101D7000704700BFF91E020000030050074B1B5CB8
:101D80001F2B86BF064903F01F034FF0A04101221D
:101D900002FA03F3C1F80835704700BFF91E0200CC
:101DA0000003005008B50020FFF7E8FF0120FFF70F
:101DB000E5FF0220FFF7E2FFBDE808400320FFF740
:101DC000DDBF0000034BD3F810056FEA901000F060
:101DD0000100704700030050C10710B5044642D50A
:101DE0004FF08043D3F84036DA072ED54FF010235A
:101DF000D3F8043303F00703072B26D11D4A012330
:101E0000C2F80435D2F80034002BFBD04FF010217B
:101E1000D1F8043323F0070343F00403C1F804337B
:101E20000023C2F80435134AD2F80034002BFBD04B
:101E3000BFF34F8F1049114BCA6802F4E06213439D
:101E4000CB60BFF34F8F00BFFDE74FF0A0420C49BE
:101E50000323C2F81837C2F82037C1F82437C2F874
:101E60003037FFF79FFFA30742BF054B0C22C3F893
:101E7000182710BD00E0014000ED00E00400FA0565
:101E80000003005038B5074C051E04F1080318BFC5
:101E90001C4623682BB11A6822605B682846984765
:101EA000F7E738BD0007002020B9054B01225A7022
:101EB000FFF7E8BF012802D1014A9070F8E77047A8
:101EC000F806002038B50C4C23789BB90B486360AA
:101ED000A3602361E36000F047F8054600F050F886
:101EE00001232370064BD3F800340BB10123A370F8
:101EF000284638BD8525F5E7F8060020A91E000014
:101F000000000140024AD2F80034002BFBD0704799
:101F100000E0014070B50E4E01231546C6F80435A9
:101F2000BFF36F8FBFF34F8F0024AC4207D1002364
:101F3000C6F80435BFF36F8FBFF34F8F70BD51F8F4
:101F4000243040F82430FFF7DDFF0134EDE700BF17
:101F500000E0014000F18040002382B0036003688C
:101F60000193019B02B07047044A137923B9012100
:101F70001060918018467047852070470C0700203C
:101F8000084B1A68D20704D4C02283F80023012228
:101F90001A604FF080420123C2F81835024A1370CC
:101FA000704700BF00E100E01407002010B54FF0BB
:101FB0008041D1F8003163B14FF48070FFF7CAFF60
:101FC00001220D4BC1F80823587910B95A711B68CA
:101FD00098474FF08042D2F8043163B14FF48270D9
:101FE000FFF7B8FF0223C2F80833034BBDE81040E7
:101FF0001B680120184710BD0C070020034BD3F8C5
:102000003C0410F0030018BF01207047005000404E
:1020100070B5204A86B0137A8DF8070023BB9DF86F
:102020000730032B05D1FFF7E9FF0130C0B28DF86F
:1020300007009DF80730012BDCB217D0022C13D11A
:10204000154D6B7A03F0FF0173B901261148168113
:10205000917200F067FA0F4800F04AFA6B686E72EE
:1020600002940BB102A8984706B070BD0A4B5A7A89
:10207000002AF9D0094A4FF48F619460C2F808131E
:1020800000215972042102914FF48051C2F80815C1
:102090005B68E6E70C0000201807002000500040B5
:1020A0001FB5784AD2F8043153B1D2F8043313F093
:1020B000020305D00023C2F80431BFF34F8F02237F
:1020C000D2F80811002900F0D880D2F8041349078B
:1020D00040F1D3800021C2F80811BFF34F8F8B422B
:1020E0000CBF01200320FFF793FF664BD3F81821A4
:1020F000A2B3D3F80423520630D50021C3F8181137
:10210000BFF34F8F402201910092D3F81025039224
:10211000D3F82425C2F30B02103AC2F3CC02029288
:10212000D3F828217AB1D3F8042350050BD5D3F87E
:102130000C2402F00D020192C3F82811BFF34F8F57
:102140000D22C3F80C24504B5B680BB168469847CE
:102150004C4B0022C3F80C21BFF34F8F494BD3F8EF
:102160001021AAB1D3F80423D10611D50022C3F857
:102170001021BFF34F8FCDE901220392102200926C
:102180001822C3F80823404B5B680BB16846984798
:102190003C4BD3F84C2172B3D3F8042312032AD555
:1021A0000022C3F84C21BFF34F8FC3F81821BFF3AF
:1021B0004F8FC3F82821BFF34F8FC3F80C21BFF313
:1021C0004F8FC3F81021BFF34F8F2F48C168C1F361
:1021D0001301C3F808150D21C3F80C140121C3F82D
:1021E00004144FF40023009343680392CDE90122C5
:1021F0000BB168469847234BD3F81C21F2B1D3F8B2
:10220000042310061AD50022D3F80414C3F81C21A5
:10221000BFF34F8FCDE901220392C9074FF080022F
:10222000009207D50122C3F80424174B5B680BB159
:1022300068469847134B0122C3F80424114BD3F886
:102240000C21BAB1D3F80423120713D50022C3F826
:102250000C21BFF34F8F0C4A52685AB108210091EC
:10226000D3F810150291D3F81C35C3F3C8030193BA
:102270006846904705B05DF804FB002B3FF435AF8E
:10228000022030E7005000401807002000F1804392
:1022900082B01A68002A14BF0120002004D0002256
:1022A0001A601B680193019B02B070470E4A1378B5
:1022B000C3B903784FF08041C3F34003C1F88035C0
:1022C000037803F00103C1F87835084B1968C90792
:1022D00004D4C02183F80013012119600123137075
:1022E00000207047852070473407002000E100E09F
:1022F000014B02681A607047300700204FF080439E
:102300004FF46072C3F804237047000010B54FF01B
:102310008043D3F80443620707D54FF48470FFF776
:10232000B5FF10B11E4B1B689847A30608D54FF4A4
:102330008A70FFF7ABFF18B11A4B00201B68984753
:10234000600608D54FF48C70FFF7A0FF18B1154B4D
:1023500001201B689847210608D54FF48E70FFF7BF
:1023600095FF18B1104B00201B689847E20508D56F
:102370004FF49070FFF78AFF18B10B4B01201B68D8
:102380009847A3050AD54FF49270FFF77FFF28B155
:10239000054BBDE810401B680220184710BD00BF68
:1023A000280700202C0700203007002008B5FFF781
:1023B000ADFFBDE80840FFF7F9BD2DE9F347002464
:1023C00006460F46904600F5A0754FF48039A246A8
:1023D0002B688BB1D6F8043309FA04F21A420BD0F9
:1023E000C5F800A02B680193A000019B00F5A07325
:1023F00098B2D7E9003198470134E3B2984505F126
:102400000405E5D802B0BDE8F0870000F7B506790D
:10241000344D0C2474432F193B7A002B5FD12A5181
:102420004A687A609C461A4647790368D4B2A74244
:102430004BD81C0BCA7843F30733002BAEBF03F114
:102440006043294B04F00F044FEA4212A8BF03F582
:102450006143D2B2B4BF1A5583F8002303681C0B42
:1024600043F30733002B07DB012204F01F04A240D3
:102470005B091E4C44F8232004684B78D4F80425EB
:1024800003F0030322F003021343C4F80435046885
:102490008B78D4F8082503F0030322F003021343DA
:1024A000C4F8083500680B78D0F8102503F00F0346
:1024B00022F00F021343C0F810350C2303FB06551E
:1024C00001232B72002003B0F0BDA40004F5A0741A
:1024D000013243F804C01B590193019BA4E7082073
:1024E000F1E700BF3807002014ED00E000E100E054
:1024F000036801221A600279034B0C2101FB0233AD
:1025000002221A72704700BF3807002003680122B8
:102510001A610179024B0C2000FB01331A727047DB
:102520003807002003680122DA60704773B54FF462
:10253000803405688C408BB18B0003F5A0730026B6
:10254000EE50EB580193019B0368C3F80443036802
:1025500001F5A87143F8212002B070BDC5F8084309
:10256000F5E7F0B4076840F20116D7F800528E4044
:1025700025EA0605C7F800520468D4F800522B4338
:10258000C4F800329DF81030F0BCFFF7CFBF000058
:10259000024903480422FFF710BF00BF380700209C
:1025A00000800040024903480422FFF706BF00BF35
:1025B0004407002000900040024903480622FFF72C
:1025C000FCBE00BF5007002000B001400023435074
:1025D00082B043580193019B02B070471FB501239D
:1025E0008DF80030044BCDE90110D3E900126846A4
:1025F000904705B05DF804FB5C0700207FB5434AB7
:10260000D2F82461002E60D010464FF49271FFF78B
:10261000DDFF02238DF80030D2F88034C2F8803418
:102620000393D2F83C350293394BDA6801920022C9
:10263000C3E906226846D3E9001290473348D0F830
:10264000443173B14FF4A271FFF7C0FF304B9A6968
:102650003AB10022C3E90622D968D0F83C05FFF759
:10266000BDFF2A48D0F82031ABB14FF49071FFF78D
:10267000ADFF0123C360264B5A6962B1D0F84C15F7
:102680000291002299688DF8002001915A616846F4
:10269000D3E9001290471D48D0F858319BB14FF450
:1026A000AC71FFF793FF1A4B5A6962B1D0F84C1521
:1026B0000291002299688DF8002001915A616846C4
:1026C000D3E90012904704B070BDD2F81031002B4E
:1026D000B4D04FF488711046FFF778FF0C4BD2F856
:1026E0003C0599698842A9D1DC69D96864B1D2F8FE
:1026F000005225F02005C2F800521A699C61DA6088
:10270000DE61FFF76BFF99E79C61FAE7002000406C
:102710005C07002010B5124C2378FBB9114B1960EF
:10272000037813F0010F104B1EBFD3F8042542F0BD
:102730000102C3F80425D3F8002222F00102C3F8F5
:1027400000224378094A5B01DBB282F80D334FF473
:102750000053136001232370002010BD8520FCE787
:10276000840700208007002000D0004000E100E046
:10277000074B0022C3F8002182B0D3F80021019258
:10278000019A0122C3F804231A6002B0704700BF07
:1027900000D00040024B0122C3F808235A60704762
:1027A00000D00040074B0022C3F8002182B0D3F8CC
:1027B00000210192019AD3F80805034B1B68C0B2AF
:1027C00002B0184700D00040800700204FF080532F
:1027D0001A69B0FBF2F302FB130373B9084A022132
:1027E000C2F80415C2F80805D2F80014C907FBD5D1
:1027F0000021C2F80415184670471023FBE700BFFC
:1028000000E001404FF080531869704703688B4225
:1028100004D10260BFF35F8F002070474FF0FF309C
:1028200070470EF0F7BE0000074A1368032B09D863
:10283000064B196809021960196808431860136883
:1028400001331360704700BF880700208C07002009
:1028500000200EF0F3BC000030B54FF080430122A1
:102860000024DA6089B0C3F818459A60FFF72AFBA4
:102870000320FFF7B1FA2F4B4FF47A721B68B3FBBA
:10288000F2F3013BB3F1807F09D24FF0E022E02167
:102890005361294B83F82310072394611361274D5B
:1028A000274B284A002406A92846CDE90634FFF71D
:1028B000ADFD2B682449D3F810250123D2B2009333
:1028C00021FA02F228462146FFF74BFE2846FFF781
:1028D0000FFE06A91D4A1E48FFF798FD1D4B40221A
:1028E00083F8272303A88DF80C40FFF7DFFC1A4B71
:1028F000059305A8FFF7FCFCFFF700FD4FF08043B0
:10290000D3F83854EA0702D520460EF083FEAB0711
:1029100002D502200EF07EFE104B11491B88ADF847
:10292000103004A8FFF7F6FE0E4B00221A6009B023
:1029300030BD00BF0800002000ED00E020000020B6
:1029400000000306E5290000007102008D2A000046
:102950001800002000E100E0232800002B1F0200E7
:102960002928000088070020024A136801331360F9
:10297000704700BF900700201046704701DF704786
:1029800010B503460C4618460021012201DF00B9AC
:1029900010BD002CF7D14FF0FF30F9E7BFF35F8F88
:1029A0000023036070470000014B1868704700BFA8
:1029B0009007002070B5074D2E6804462B689B1BBE
:1029C000A34200D370BD00214FF0FF300DF0B6FDE3
:1029D000F4E700BF900700200020FFF7BBB90020FC
:1029E000FFF7CCB938B50BF097FE0F4B1B78CBB186
:1029F0000020FFF7E7F90D4D0D4B58B11C682B680F
:102A000003F57A73A34204D80120C8340BF0ACFD5F
:102A10002C6038BD1B682A689A42FAD2BDE838405B
:102A20000BF0A2BD0120F9E7980700202800002044
:102A30009007002038B521B9BDE838401148FFF7AC
:102A400065BD104D104B18602B68D3F810454FF43E
:102A50007A53E4B2A1FB0313C4F1200003FA00F09F
:102A6000A4F1200221FA04F4044323FA02F22846D6
:102A7000012322430021FFF759FD2846BDE83840D5
:102A8000FFF736BD1800002094070020024B1B689A
:102A900003B11847704700BF9407002010B5FFF737
:102AA00067FE064C2368032BFCD9FFF773FE044A2C
:102AB000002310681360236010BD00BF880700204A
:102AC0008C0700200020704770B514461D460E4646
:102AD000FFF798FE044B049A06FB00411944284670
:102AE0000FF0DEFB002070BD00000B0010B50C469F
:102AF000FFF788FE054B04FB0030FFF767FE002858
:102B000014BF6FF00400002010BD00BF00000B00D8
:102B10002DE9F341089D15F003070E46144605D034
:102B20000D4B0E4A0E482A210FF076FCDFF8388054
:102B300001930123C8F80435FFF764FE094B01999E
:102B400006FB00401844AA08FFF7E4F93846C8F825
:102B5000047502B0BDE8F0812D1F02006A1F02005B
:102B60003B1F020000000B0000E0014038B51C4C88
:102B70004C21204610F00EFF1A4B63601A4BA360E5
:102B80001A4BE3601A4B236101220423C4E9052395
:102B9000FFF738FEE061FFF735FE164B164A17497E
:102BA0009B1AB3FBF0F08023C4E909131023E362FE
:102BB000134B2363134B6363134B2062A3630325FF
:102BC00020460BF0CFFD48B1013DF9D104480BF090
:102BD000C3FD03480BF0C6FD00B1FEE738BD00BFE2
:102BE0009C070020C92A0000112B0000ED2A0000DC
:102BF000C52A000000000F0000000B00A0860100A5
:102C000078080020F8070020E80700200F4C08B5DE
:102C100001232370FFF720FE4FF480410020FEF7D0
:102C2000DFFD08B1FFF772F8FEF733FDFFF79EFFF7
:102C300008F09AF80BF002FC07F096F9FEF7EEFDAB
:102C40000028FBD120780BF06DFCF7E798070020F7
:102C500038B50D4C0D4D0422FF2120460FF088FDA4
:102C60000322FF2128460FF083FD01236B70002211
:102C70006370022322702B70A37000F019F810B15A
:102C80000323AB70E37038BDB9170020B6170020DE
:102C900000207047002070470020704700207047D8
:102CA000024B187900F00100704700BFF8080020BF
:102CB000024B1879C0F38000704700BFF80800206D
:102CC000024B1879C0F3C000704700BFF80800201D
:102CD000024B1879C0F30010704700BFF8080020BD
:102CE000014B00229A7070472C0000201A4B0022E2
:102CF00013B59A70044680B11849194819230B710D
:102D0000002201230A60009305230BF061FD0028D7
:102D100017DA4FF0FF3002B010BD11480BF0FAFD8A
:102D200005280346E8D10D490D4822460BF020FD49
:102D30000028EEDB0B480BF0EDFD002803DB002044
:102D4000E9E7002CF6D008490348032306220BF0DC
:102D50001FFEC017DFE700BF2C000020F80800208E
:102D6000751F02002F0000207F1F020010B50146D2
:102D700004460423064800220BF0FAFC042806D07F
:102D800020460422BDE8104000210FF0F1BC10BD28
:102D9000861F020070B500230B714B718B716FF0B1
:102DA0006F03CB714379322B86B005460C463BD07E
:102DB0001CD8202B00F09380312B25D0A548827899
:102DC000002A6CD0082B00F2BA80002B00F0C180E2
:102DD000013B072B00F2BD80DFE813F0C900CE00F5
:102DE000D300D700DB00BB00DF00E300502B34D062
:102DF000A42BE3D18379042B03D1C379002B00F0FA
:102E000081806FF0790335E08379012BF9D8C2799D
:102E1000002AF6D12BB9FFF73DFF002872DA002314
:102E200032E0FFF739FFF8E78679012EE9D8C37958
:102E3000002BE6D176B98368032B04D80023A37155
:102E40006723E3715EE00868FFF790FF04232371B6
:102E5000667157E0FFF722FFDFE78379002BD0D1BF
:102E60008289052AEAD17C49006810F079F920B1FD
:102E70006FF07F03A3716A23E3E776480BF04CFE03
:102E8000002804DD6FF07A03A3716923D9E70BF002
:102E900071FB0028F6D10BF00BFC002802DA6FF072
:102EA0007D03F1E7012004F0D3FC0028B7DB01200B
:102EB00006F030FC0028B2DB012003F067F80028A0
:102EC000ADDB012001F0F0FF012002F081FD0028C0
:102ED000A5DB0120FFF70AFF00EAE0709DE7837998
:102EE000002B8ED1C679002E8BD182896AB95948C0
:102EF00083783BB90BF010FE002890DB00F5C7404B
:102F00004030E080002006B070BD016851480DF1EE
:102F10001703D2B20BF060FD411C80D0C21C01D15E
:102F2000A6718DE79DF8173013B96FF07C03ABE7FE
:102F30000230E7D103F5C7434033E380E2E7412B9A
:102F400000F0A48009D8302B43D0402B5CD0212B3B
:102F50002CD00023A3716D2373E7422B00F0AC80CB
:102F6000FF2BF6D121462846FFF792FE55E7214672
:102F7000284602F015F850E72146284602F020F8CE
:102F80004BE7012004F064FC47E7012006F0C2FB98
:102F900043E7012002F0FAFF3FE7012002F018FDAD
:102FA0003BE72146284602F0D5FC36E7AB79002BFB
:102FB0007FF427AFEB79002B7FF423AFAA89296830
:102FC000D2B20BF07AFD431C3FF429AF033099D104
:102FD00034E7AB79002B7FF414AFEE79002E7FF449
:102FE00010AFAB89042B7FF429AF1C480BF092FC87
:102FF0000028BFF647AF01230093AB892968174823
:1030000032460BF0E5FB08E7AB79013B042B3FF6BA
:10301000F8AE01A252F823F02D300000032E00007C
:103020006930000075300000813000000C4BE979F8
:103030001A7961F300021A710123094900930022F1
:10304000052308480BF0C4FB03900BF0B7FA039874
:10305000E3E600BF2C000020891F0200861F02004B
:10306000F8080020751F0200274BE9791A7961F3EF
:103070008202E0E7244BE9791A7961F3C302DAE7C7
:10308000214BE9791A7961F30412D4E7AB79002B6B
:103090007FF4B7AEEE79002E7FF4B3AEAB68012BB0
:1030A0007FF6CCAE0BF062FC236818700BF052FC7C
:1030B000236858700223CAE6AB79002B7FF4A1AED7
:1030C000EE79002E7FF49DAEAB68042B7FF6B6AE92
:1030D0000D4D22682B79C3F3000313702B792268FE
:1030E000C3F38003537002F02BFC236898702B7994
:1030F0002268C3F3C003D3702B792268C3F3001393
:1031000013710523A3E600BFF808002010B5837BE8
:10311000A02B0C4606D00D4B0D4A0E4840F2E11193
:103120000FF07AF9C37B59070DD413F0010308D0CF
:103130000CF030F80B462060181E18BF01208002EA
:1031400010BD8089F7E70220FAE700BF8F1F020059
:103150004E210200A81F020010B5837B402B06D031
:10316000054B064A06484FF4DC710FF055F9BDE8EF
:10317000104000230CF04CB9E91F02001621020098
:10318000A81F020010B5837B602B06D0054B064AB2
:1031900006484FF4D9710FF03FF9BDE81040002305
:1031A0000CF036B94E20020032210200A81F0200A6
:1031B000F0B50C46C9B0054604A920460CF07EF8CF
:1031C00010B1122049B0F0BD204602A9FFF79EFFC2
:1031D00004460028F5D11F4F0426029B9C4201D3D0
:1031E0000020EFE79DF81E30602B01D01120E9E7A9
:1031F00003AA01A904A80396FFF7C4FFB0F1004F8A
:1032000026D00028DDD104A80CF052F90028D8D12E
:103210009DF81E30602BE9D1394601A80EF096FBCF
:1032200078B9FE2303AA08A904A80393FFF7AAFF0D
:103230000028C6D18DF81D0103992A4608A810F070
:1032400027FD04A80CF034F90028BAD10134C4E7F2
:103250001520B7E70A200200F52908B506D0064B6D
:10326000064A074840F24D110FF0D6F8003818BF53
:1032700001201070002008BD0D200200E320020094
:10328000A81F020010B5837B03F0DF03402B0C4620
:1032900006D00D4B0D4A0E484FF4CF710FF0BCF81D
:1032A000C37B59070DD413F0010308D00BF072FF54
:1032B0000B462060181E18BF0120800210BD8089B7
:1032C000F7E70220FAE700BF2A200200C62002002A
:1032D000A81F020010B5837B802B0C4606D00D4B37
:1032E0000D4A0E484FF4EA710FF096F8C37B590768
:1032F0000DD413F0010308D00BF04CFF0B462060F7
:10330000181E18BF0120800210BD8089F7E7022037
:10331000FAE700BF6F200200FA200200A81F020097
:103320008B7BA02B01D1FFF743BF1120704700001A
:103330002DE9F0418B7BA02B8AB004460D461CD1B1
:1033400006A928460BF0BAFF18B112200AB0BDE852
:10335000F08101A92846FFF7D9FE0028F5D1434E98
:10336000434FDFF814810546019B9D4201D30020A5
:10337000ECE79DF82630602B01D01120E6E70C2306
:1033800002AA0DEB030106A80293FFF7FBFEB0F1C2
:10339000004F01D11520D9E70028D6D106A80CF09E
:1033A00087F80028D1D1314603A80EF0CFFAC0B972
:1033B0009DF82630402BE0D102AA214606A80293B0
:1033C000FFF7CAFEB0F1004FE4D00028BDD1029B48
:1033D00084F8403006A80CF06BF80028B5D1013510
:1033E000C2E7394603A80EF0B1FA78B99DF8263045
:1033F000602BC2D1412302AAE11806A80293FFF76D
:10340000C1FE0028A1D184F88100E3E7414603A86A
:103410000EF09CFA88B99DF82630602BADD141237F
:1034200002AA04F1820106A80293FFF7ABFE00286E
:103430008BD1002384F8C230CCE70E4903A80EF0EC
:1034400085FA0028C6D19DF82630602B95D18123BE
:1034500002AA04F1C30106A80293FFF793FE002815
:103460007FF473AF84F84301B4E700BF0A20020081
:103470008A2002009B2002008F2002002DE9F047E5
:10348000837B802B90B004460F4621D104A90BF01A
:1034900015FF18B1122010B0BDE8F08702A9204630
:1034A000FFF718FF0028F5D1029EDFF89C80DFF8B7
:1034B0009C90DFF89CA034460546AE4204D1B4424D
:1034C0000CBF26200020E6E79DF81E30A02B01D07F
:1034D0001120E0E708AA414604A80CF033F80028C0
:1034E000D8D10CAA494604A80CF02CF80028D1D158
:1034F0009DF82E30602B25D19DF83E3013BB0DF189
:103500000702514608A80BF0F7FF0028C2D19DF82A
:103510000730ABB103A90CA80BF04AFF0028B9D1C2
:10352000039B03F10802012A03D8A64204BF3B60B3
:103530002C4604A80BF0BCFF0028ABD10135BCE73A
:103540002620A8E71420A6E7A0200200A52002005C
:10355000A920020030B5837BA02B87B005460C461E
:1035600023D1134902AA0BF0EDFF10B1122007B0CE
:1035700030BD9DF81630402B0DD14423019364B922
:103580000C4902AA28460BF0DDFF0028EED19DF879
:103590001630602BEBD01420E9E701AA214602A8DF
:1035A000FFF7DAFD0028EBD0E0E71120DFE700BFEE
:1035B0000A200200A020020010B5837B802B86B079
:1035C00004461FD101A9FFF785FE10B1122006B0F5
:1035D00010BD02A920460BF071FE0028F6D104466A
:1035E000019B9C4201D30020F1E7002102A8FFF7D4
:1035F000B1FF0028EBD102A80BF05AFF0028E5D15B
:103600000134EDE71120E2E72DE9F0471C469B7BF2
:10361000A02B88B005460E46174640F0838004A9CB
:1036200020460BF04BFE18B1122008B0BDE8F08721
:1036300002A92046FFF76AFD0028F5D1DFF8E880EF
:10364000DFF8E890DFF8E8A00446029B9C4201D333
:103650000020EAE79DF81E30602B63D103A904A87F
:103660000BF042FF0028DFD1039B022B2AD103AAD3
:1036700001A904A8FFF786FD0028D5D104A80BF006
:1036800017FF0028D0D19DF81E30F52B4AD1022219
:10369000414601A80FF042F8B8B99DF81E10BDF8D8
:1036A0001C000DF10302FFF7D7FD0028BCD115B1B6
:1036B0009DF803302B7004A80BF0FAFE0028B3D15C
:1036C0000134C2E7ADF80400D8E70222494601A858
:1036D0000FF024F878B99DF81E10BDF81C000DF10C
:1036E0000302FFF7B9FD00289ED1002EE3D09DF81C
:1036F00003303370DFE70222514601A80FF00EF8C5
:103700000028D8D19DF81E10BDF81C000DF1030251
:10371000FFF7A2FD002887D1002FCCD09DF8033001
:103720003B70C8E7112080E76D210200B420020041
:10373000B7200200F0B5837BA02B89B004460E466B
:103740001AD104A90BF0BAFD10B1122009B0F0BDD6
:1037500001A92046FFF7DAFC0028F6D10546044609
:103760002027019B9D4204D3032C8CBF00201420F2
:10377000ECE79DF81E300BB11120E7E703A904A880
:103780000BF016FE0028E0D104A80BF091FE0028F3
:10379000DBD1039B0333062B4AD8DFE803F03E2F2F
:1037A0002249154904009DF81E30002BE4D103A9DD
:1037B00004A80BF0FDFD0028C7D1039BDA1D35D00E
:1037C000193333D0F120C1E79DF81E30002BD3D13F
:1037D00003A904A80BF0ECFD0028B6D1039B022B33
:1037E000EFE79DF81E30002BC6D103A904A80BF00B
:1037F000DFFD0028A9D1039B012BE2E79DF81E30D5
:10380000402BB9D1029702AA314604A8FFF7A4FCC5
:1038100000289AD1029B202BD3E79DF81E30402B25
:10382000AAD1029702AA06F12001EEE70134E4B220
:1038300004A80BF03DFE002887D1013591E7000078
:1038400070B58B7BA02B86B005460C463FD102A9F4
:1038500020460BF033FD10B1122006B070BD20469B
:1038600001A9FFF753FC04460028F5D1194E019B2E
:103870009C4201D30020F0E79DF81630602B26D142
:103880000DF10202314602A80BF036FE0028E3D10A
:1038900002A80BF00DFE0028DED19DF81610F529C8
:1038A00015D19DF802305BB1BDF814000DF1030293
:1038B000FFF7D2FC0028CFD115B19DF803302B7053
:1038C00002A80BF0F5FD0028C6D10134CFE7112086
:1038D000C3E700BFBA2002002DE9F0478B7BA02B85
:1038E0008EB006460C4640F0AE8006A920460BF08E
:1038F000E5FC08B112203DE002A92046FFF706FCD6
:103900000028F7D1DFF844910546029B9D4201D380
:1039100000202FE09DF82630602B40F094800DF1C0
:103920000702494606A80BF0E7FD0028E2D106A8E9
:103930000BF0BEFD0028DDD19DF80730002B49D0EB
:10394000338843F4805333809DF82630A02B7AD1FE
:103950000AA906A80BF0B2FC0028CBD103A906A83F
:10396000FFF7D4FB0028C5D1DDF80C80B8F1020FB9
:1039700003D814200EB0BDE8F0870446074606F1D0
:10398000B00A9DF83630002B5DD105A90AA80BF0CE
:103990000FFD0028AED10AA80BF08AFD0028A9D19E
:1039A000059B022B1DD0032B37D0012B08D106F12C
:1039B00070010AA8FFF7BEFE00289BD147F001075F
:1039C0000AA80BF075FD002894D10134A045D8D188
:1039D000072FCED106A80BF06BFD00288AD1013548
:1039E00093E79DF83630402B2DD104AA51460AA802
:1039F0000493FFF7B1FBB0F1004F01D10320B9E709
:103A000000287FF477AF049B402B01D0202BF5D109
:103A100086F8003147F00207D2E79DF83630402B98
:103A200011D110230DEB030206F1F0010AA8049353
:103A3000FFF792FB00287FF45DAF049B102BDDD1D4
:103A400047F00407BCE7112094E700BFBA2002004A
:103A5000F0B50C4691B00746164600214FF4DC72D3
:103A6000204608AD03930EF083FE039900953B4674
:103A700040F6FF7230460BF0D3FB10B1122011B0AC
:103A8000F0BD9DF82E30A02B01D01120F7E70CA936
:103A900028460BF013FC0028F0D105A92846FFF7B3
:103AA00035FB0028EAD1054604F5DA76059BAB42E2
:103AB00007D8238803F00F030F2B0CBF002014201E
:103AC000DDE79DF83E30002BDFD106A90CA80BF0F6
:103AD0006FFC0028D2D10CA80BF0EAFC0028CDD155
:103AE000069B013B082B50D8DFE803F0051A253070
:103AF0003B57637A9A009DF83E30402BC5D1202376
:103B000003AAA11C0CA80393FFF726FB0028B5D13C
:103B1000039B202BB2D1238843F00103238034E0A0
:103B20000CA904F12200FFF7FBFB0028A7D1238892
:103B300043F00203F2E70CA904F14200FFF7F8FB9F
:103B400000289CD1238843F00403E7E704F5C471FF
:103B50000CA8FFF793FC002891D1238843F00803B9
:103B6000DCE70CA8FFF728FD002888D104F5C67112
:103B70000CA80BF0A3FB002880D104F5CE710CA893
:103B8000FFF7A8FB00287FF479AF0CA80BF090FC9E
:103B900000287FF473AF013588E70CA904F2A11067
:103BA000FFF74EFE00287FF46AAF238843F010032E
:103BB000B4E700238DF813300DF113020CAB04F5BC
:103BC000D17104F5D070FFF71FFD00287FF457AFC7
:103BD0009DF81330002B36D1238843F020039DE756
:103BE0009DF83E30402B7FF450AF31460CA8FFF7D4
:103BF00049FB00287FF442AFD4F8B43133F010030E
:103C000001D033203BE7324604F2A3110CA8FFF7A2
:103C1000A3FA00287FF432AF238843F040037DE706
:103C20009DF83E30002B7FF430AF07A90CA80BF0B5
:103C3000BFFB00287FF422AF079B012BE1D1238833
:103C400043F080036AE72C2019E7F0B50C46D1B0A9
:103C50000746164600214FF482722046039308ADB2
:103C60000EF086FD012384F85830039900953B46F9
:103C700040F6FF7230460BF0D3FA10B1122051B06B
:103C8000F0BDAB7BA02B01D01120F8E70CA9284692
:103C90000BF014FB0028F1D105A92846FFF736FAEE
:103CA0000028EBD1054604F16C06059BAB4207D812
:103CB000238803F00303032B0CBF00201420DEE74E
:103CC0009DF83E30002BDFD106A90CA80BF070FB4D
:103CD0000028D3D10CA80BF0EBFB0028CED1069B1B
:103CE000013B062B46D8DFE803F0041D324D546338
:103CF00082009DF83E30602BC6D1FE2303AA10A996
:103D00000CA80393FFF73EFA0028B7D18DF83D01C8
:103D10000399A21C10A80FF0BBFF238843F00203F5
:103D2000238027E09DF83E30402BADD1202303AA0D
:103D300004F122010CA80393FFF70EFA00289DD18D
:103D4000039B202B9AD1238843F00103E8E70CA8BA
:103D5000FFF732FC002892D104F144010CA80BF0CB
:103D6000ADFA00288AD104F154010CA8FFF7B2FA89
:103D7000002883D10CA80BF09BFB00287FF47EAFBA
:103D8000013592E70CA92046FFF7A6FD0028F1D0E7
:103D900075E70CAB04F1580204F159010020FFF75C
:103DA00033FC00287FF46BAF238843F02003B7E790
:103DB0009DF83E30402B7FF467AF31460CA8FFF7EB
:103DC00061FA00287FF45AAFE36E33F0100301D09C
:103DD000332054E7324604F15A010CA8FFF7BCF92E
:103DE00000287FF44BAF238843F0400398E79DF809
:103DF0003E30002B7FF448AF07A90CA80BF0D8FA8F
:103E000000287FF43BAF079B012BE1D1238843F0CF
:103E1000800385E7F0B50C4691B0074616460021B1
:103E2000A422204608AD03930EF0A2FC039900954E
:103E30003B4640F6FF7230460BF0F2F910B112200B
:103E400011B0F0BD9DF82E30A02B01D01120F7E766
:103E50000CA928460BF032FA0028F0D105A9284613
:103E6000FFF754F90028EAD1054604F19306059BB3
:103E7000AB4212D8238803F4C072B2F5C07F40F081
:103E8000BC80A278032A40F0A88003F4C063B3F595
:103E9000C06F0CBF00201420D2E79DF83E30002BED
:103EA000D4D106A90CA80BF083FA0028C7D10CA81E
:103EB0000BF0FEFA0028C2D1069B013B052B16D859
:103EC000DFE803F0031C2C36526F9DF83E30002BC8
:103ED000BCD107A90CA80BF06BFA0028AFD1079B47
:103EE000012B40F08880238843F0800323800CA8B6
:103EF0000BF0DEFA0028A2D10135B8E79DF83E307C
:103F0000002BA3D107A90CA80BF052FA002896D1D8
:103F1000079BA370238843F48073E7E7E11C0CA898
:103F2000FFF708FC00288BD1238843F40073DDE7FA
:103F30009DF83E30402B89D103A90CA8FFF7A2F9C8
:103F400000287FF47CAF039B102B7FF478AF03AA8B
:103F500004F143010CA8FFF7FFF800287FF46FAFCE
:103F6000238843F04003C1E79DF83E30402B7FF4A7
:103F70006DAF03A90CA8FFF785F900287FF45FAFA8
:103F8000039B402B7FF45BAF03AA04F153010CA801
:103F9000FFF7E2F800287FF452AF238843F48063F0
:103FA000A4E79DF83E30402B7FF450AF03A90CA846
:103FB000FFF768F900287FF442AF039B102B7FF4D2
:103FC0003EAF03AA31460CA8FFF7C6F800287FF4DD
:103FD00036AF238843F4006388E7042A04D103F44E
:103FE0006463B3F5646F54E7052A08D103F42063D2
:103FF000B3F5206F4DE7332022E7142020E700209F
:104000001EE713B50446084601910EF057F90199D1
:104010000246204602B0BDE810400AF077BE00001C
:1040200007B5034602460190084900200FF000FA48
:10403000002808DB019A202110460FF029FE0020FD
:1040400003B05DF804FB0120FAE700BF440A00203A
:104050002DE9F7430C461546014620220746204627
:104060001E46DDE90B890EF01BF984F8205001A8EB
:1040700001F058F9002803DAF12003B0BDE8F0831D
:10408000019B6A061BBAC4F8213040F18E80D8F833
:104090000030C72B01D81520EFE74549102204F165
:1040A00025000EF0FDF8002384F83530442339460E
:1040B00084F83630202204F1570004F17B070EF01B
:1040C000EFF84A46394604F1370001F043F9002879
:1040D000D2DB19F1070F41D1202204F19B0104F139
:1040E000A8000EF02BFB2022394604F185000EF0CB
:1040F00025FBA52384F87B300223012284F87D3040
:10410000032384F87C2084F87E3084F881202623E1
:10411000212284F87F3084F8822020235822222113
:1041200084F8803084F8832084F8843084F8A510E3
:1041300084F8A62084F8A730C8202B060AD5D8F822
:1041400000303518AB42A6D30A99324620440EF00F
:10415000A7F82846C8F8000000208EE719F1080FDC
:104160008AD12022394604F185000EF0E7FAA42313
:1041700084F87B300123062284F87C3084F87D307B
:10418000032384F87E3084F881202723212284F8B9
:104190007F3084F882202023582284F8803084F8ED
:1041A000832084F88430A520C7E72520C5E700BF19
:1041B000B22102002DE9F04F9A4EADF5637D3378C0
:1041C000059205AF8046ABB3974C23885A063FD47F
:1041D000636D002B69D196F800A0BAF1000F40F092
:1041E000E18092480AF096FB051E7ADBDFF85092D8
:1041F000DFF838B289F800A0DFF848A24FF4C473A2
:10420000B5FBF3F5013D681C40F0B38099F8003030
:10421000002B40F0C78094F858304BB10AF0AAF94F
:1042200030B901200AF0E0F9012824D0022824D076
:104230002E2508E0134607A80A467B49FFF705FD2F
:1042400005460028C0D028460DF5637DBDE8F08FF7
:10425000E26EA2B90AF08EF930B901200AF0C4F971
:10426000012808D0022808D001F03EF9002814BF28
:1042700031253525E7E72D25E5E72F25E3E71B0663
:1042800001D43325DFE715AD6948009504F122021A
:10429000102120230FF00FFB102204F15A012846B1
:1042A0000EF03CFA002893D0EBE7DFF89C91002554
:1042B000A9F1420A80A94846FFF74CF9202251464D
:1042C00088A80EF02BFA30B148460BF0F1F8002820
:1042D0004AD01225B7E71DA980A801F079F8002877
:1042E00001DAF125AFE7EFD1636DAB4293D0002146
:1042F0001C2225A8CDE90911CDE90B110EF038FAE1
:1043000001238DF894304B4B2C934B4B2D932388EA
:1043100009AD29954FF0100ADD048DF8ACA054D4F6
:1043200094F85950002D40F02B8294F858304BB13E
:104330000AF020F930B901200AF056F901289AD084
:1043400002289AD02388D90440F1C080DFF8FC907D
:1043500094F800214B46494684A801F02BF9054604
:10436000002877D0C5B26EE7636D0135AB42A1D8A6
:10437000BAE74FF4C47303FB05F280A958460AF06C
:10438000F7F90028ADDB202288A950460EF0C6F9C7
:1043900030B999F800305A1C89F80020274AD554C2
:1043A000013D30E73378254A2048D25C4FF4C4738E
:1043B0005A4380A90AF0DCF9002892DB1DA980A8E5
:1043C00001F006F8002892D08BE73378002BA7D1B4
:1043D000DFF87C904846FFF723FE054600287FF46F
:1043E00032AF0DF5847BCDF800B009F140052A46C7
:1043F0002021484694F800310FF05DFA524609F149
:10440000800158460EF08AF950B994F80031CDF881
:10441000A89025A8CDE9265328950EF0E1FD7FE769
:10442000E02510E7FE080020400900206821020076
:10443000A50A0020192E01002D2E0100FF080020E2
:104440003F0900204209002084090020F0090020D3
:10445000B009002094F80031CDF8A090A9F1400AED
:1044600025A8CDE92693CDF8A8A00EF003FD50466F
:1044700040210DF1B80A0FF08DFA4F22514611A8D4
:104480002B460AF00BFC012242A911A80AF053FCAA
:1044900000287FF41EAFB04942A8FFF7B2FD002804
:1044A0007FF417AF94F80021494642A80AF01CFC9B
:1044B00000287FF40EAF42A911A80AF04DFC002895
:1044C0007FF407AF119DA5EB0A05EDB2636D002BDC
:1044D000337814BF0322042223B9A04B1B78012B8D
:1044E00088BF01320DA940460AF025FC00287FF460
:1044F000F0AE012200230DA80AF0D7FB00287FF4BC
:10450000E8AE022211A90DA80AF015FC00287FF4DC
:10451000E0AE934911A8FFF774FD00287FF4D9AEEF
:10452000442280A90DEB02000AF0DEFB00287FF494
:10453000D0AE8C4911A8FFF764FD00287FF4C9AE06
:10454000894911A8FFF75DFD00287FF4C2AE11A9CB
:104550000DA80AF001FC00287FF4BBAEB4F800906F
:10456000F72349F347193B6029F07F0900F0BCFFAE
:1045700018B12088C0F38010800094F85830002BC8
:1045800018BF49F00109909B40EA0902CDE9017387
:104590002EAB009375482B4602F0850242A9FFF727
:1045A00057FD054600287FF44EAE022200230DA8D9
:1045B0000AF07BFB00287FF48CAED7F8009042A96C
:1045C0004A460DA80AF090FB00287FF482AE032231
:1045D00000230DA80AF069FB00287FF47AAE909BB7
:1045E000DA1D31D10FF032FB1FFA89F142A80FF02A
:1045F00039FB20215E480FF035FB42A80FF03AFB53
:1046000042AA11461DA800F035FF38603A6842A959
:104610000DA80AF069FB074600287FF45AAE636DC7
:104620001BB33378002B00F081800DA940460AF0BF
:1046300093FB00287FF44DAE20211DA80FF0AAF9AE
:10464000337801333370FEE50833DFD142AB03EB3F
:104650000900474920220DF023FE42AB09F1200258
:1046600019461DA800F015FFCFE723885B0605D586
:104670003A4B1F78012F94BF002701270422002303
:104680000DA80AF012FB00287FF423AE002F14BF00
:104690000422012211A90DA80AF04DFB00287FF485
:1046A00018AE2F4911A8FFF7ACFC00287FF411AE1B
:1046B0009DF8842291A911A80AF016FB00287FF426
:1046C00008AE37B911A90DA80AF046FB0028A8D0FA
:1046D000FFE5284911A8FFF794FC00287FF4F9AD05
:1046E0000DF2073111A8FFF78CFC00287FF4F1AD23
:1046F000214911A8FFF785FC00287FF4EAAD0DF2EF
:10470000852111A8FFF77DFC00287FF4E2AD1B494D
:1047100011A8FFF776FC00287FF4DBAD0DF2C6216F
:1047200011A8FFF76EFC0028CCD0D2E50B4C237803
:10473000012B7FF67AAF002305220DA80AF0B5FA07
:10474000034600287FF4C5AD22780DA80AF0ADFA23
:1047500000283FF46AAFBCE5BA2002003F09002000
:104760000A200200A0200200A92002004209002025
:10477000620900209B2002008A2002008F20020094
:104780002B2560E52DE9F04FADF26C4DA24B059263
:1047900008AE05AD07468846344603F1080C186894
:1047A0005968224603C2083363451446F7D1186896
:1047B0009B88106093802B684246ACA906A8FFF73F
:1047C00047F90446002840F0BB80DDF84C3493B133
:1047D00014A90DF23C40FEF7BDFE20220DF2D221BD
:1047E0001CA80DF09BFF002800F09180DDF84C34F0
:1047F0000134A342ECD800F077FE20B1BDF8B0320E
:10480000590640F18E81BDF8B0325A0600F1A880F9
:1048100009F0B0FE40B9012009F0E6FE012800F0E1
:10482000B380022800F0B28003220CA938460AF0B7
:1048300082FA002840F09080012200230CA80AF0A0
:1048400034FA002840F0888074490CA8FFF7D9FB9F
:10485000002840F08180D7232B609DF85134002B35
:1048600014BF6FF03F04402400F03EFE0028D4BF88
:1048700000200120DDF83834009644EA800242F03E
:104880000102CDE9015302F0C5020E2314A90DF275
:10489000D220FFF7DDFB0446002851D1022200237D
:1048A0000CA80AF002FA002856D1D5F8009014A9F5
:1048B0004A460CA80AF018FA00284DD19DF8503449
:1048C000002B00F0B18056480AF024F80028C0F20E
:1048D0009E80DFF84CB126464FF4C47AB0FBFAF85C
:1048E000464579D04FF4C4730AFB06F24AA95846EC
:1048F00009F03EFF0028C0F28A80202252A90DF262
:10490000D2200DF00BFF002859D00136E8E74AA964
:1049100014A800F05DFD202181464AA80FF03AF866
:10492000B9F1000F73DB10D109F024FEB0B90120FA
:1049300009F05AFE012827D0022814BF19242F2479
:1049400020460DF26C4DBDE8F08F0DF23C400AF0B0
:10495000AFFD00283FF44AAF1224F1E71924EFE736
:10496000DDF86424A2B909F005FE30B9012009F090
:104970003BFE012808D0022808D000F0B5FD002831
:1049800014BF31243524DBE72D24D9E72F24D7E7C2
:104990001B0601D43324D3E72248CDF800800DF262
:1049A000B222102120230EF086FF10220DF2534177
:1049B00040460DF0B3FE00283FF42AAFEAE79DF829
:1049C00032339DF8AC219A429FD15BA90DF2F220BF
:1049D0000DF0A4FE002898D13F2E1AD844220DF1E4
:1049E00087014AA80DF05CFC4FF4A2720DF2F2218F
:1049F0005BA80DF055FC002300934FF4C4730848E6
:104A000003FB06F24AA909F0E3FE00280CDAF124C0
:104A100096E7282494E700BF7F210200702102005E
:104A200068210200A50A0020032200230CA80AF036
:104A30003CF9002890D1032210A90CA80AF07BF9B8
:104A4000002889D1384910A8FFF7DBFA002883D164
:104A50006FF006024FF0FF3310A80AF026F9002885
:104A60007FF47AAF314910A8FFF7CBFA00287FF422
:104A700073AF0FF0EBF81FFA89F114A80FF0F2F8FA
:104A800020210DF2B2200FF0EDF814A80FF0F2F88B
:104A900014A9084600F0CCFC14A90246286010A80E
:104AA0000AF022F900287FF457AF214910A8FFF738
:104AB000A8FA00287FF450AF01224AA910A80AF0F2
:104AC00037F9024600287FF447AF01464AA80AF0AA
:104AD0000BF900287FF440AF4A9EB51C284600F031
:104AE000F9FC031E93DB592206F8012C1A123270CE
:104AF00073701D444AA910A84A950AF02DF90028A0
:104B00007FF42AAF10A90CA80AF026F900287FF438
:104B100023AF0CA938460AF01FF900283FF410AF64
:104B20001AE736240CE700BFA52002007721020017
:104B30007B2102002DE9F041D2B0134606460A4619
:104B400002A829A9FFF766F90446002840F09180E1
:104B500008AD102128460EF01DFF1C2221460CA88E
:104B60000DF006FE01238DF8303010238DF848300B
:104B7000984B1393984B14939DF8A6301095013BD6
:104B8000042B76D8DFE813F0050021006D00B40097
:104B90002E01012204A930460AF0CDF898B903226B
:104BA000002304A80AF081F868B900F0E1FC02468D
:104BB000C31704A80AF079F828B904A930460AF006
:104BC000CBF8002855D0122453E0012204A9304626
:104BD0000AF0B1F80028F6D10122002304A80AF057
:104BE00064F802460028EED115A904A80AF0A3F83B
:104BF0000028E8D1159D79496F1E402238460DF0F6
:104C00004FFB05F11F01202205F12D000DF096FD4F
:104C10003946202205F10A000DF090FDA52305F884
:104C2000013C02236B700323AB70012238232A70EE
:104C3000EB70AA71182321222B71EA7120235822CC
:104C4000222185F82A106B712A726B7285F82B204D
:104C500085F82C3015A94D3504A815950AF07CF877
:104C6000AAE700F041FC002801DAF12401E004D0B9
:104C70003324204652B0BDE8F0810DF1A705284647
:104C8000FFF7CEF9002840F0058115AE0DF1F702CF
:104C900020212846009640230EF00DFE10220DF133
:104CA000E70130460DF03AFD0028E1D140230E9394
:104CB0000CA80DF1F7030D930F9311950EF090F9D9
:104CC0000DF237133F2113F8012D5AB1CB1E3B2BA8
:104CD0000CD80131C9B20DF1F70000F013FC002827
:104CE000C7DAC2E7013911F0FF01ECD13724C0E780
:104CF00000F0FAFB0028B8DB00F0CE8000F038FCB2
:104D0000051EB2DB01D13224B3E70DF1A700FFF796
:104D100087F904460028ACD115AE40220DF1F70109
:104D200030460DF0BDFA10220DF2371125A80DF016
:104D3000B7FA324620210DF1A700009650230EF05D
:104D4000BAFD10220DF1E70130460DF0E7FC002816
:104D50008ED1013DE8B200F01DFC002885DB0DF18D
:104D6000A703119310230E930CA80DF237130D9384
:104D70000F930EF035F90DF2371000F0E3FB002829
:104D8000FFF673AF0AD0002DBDD0154A1378012B62
:104D900000F08480013B137031246AE7104B03223A
:104DA0001A700DF1A703119340230E930CA80DF177
:104DB000F7030D930F930EF013F90DF237133F2104
:104DC00013F8012D002A81D1013911F0FF01F7D12B
:104DD0008CE700BF192E01002D2E0100640A00206F
:104DE000FD08002000F080FB0028FFF63EAF53D006
:104DF00000F0BEFB051EFFF638AF84D00DF1A7070B
:104E00003846FFF70DF9044600287FF432AF013D24
:104E1000E8B200F0BFFB0028FFF627AF11974FF074
:104E200010080DF237170CA8CDF838800D970F97A2
:104E30000EF0D6F8384600F085FB0028FFF615AFD7
:104E4000A1D1174B032208201A7000F0A3FB002801
:104E5000FFF60BAF134BCDF8388015AD0CA80D93B2
:104E60000F950EF007F8012204A9304609F063FF00
:104E700000287FF4A8AE0222002304A809F015FF41
:104E800000287FF4A0AE102229460DEB020009F0A5
:104E90002BFF91E60446ECE63524EAE63424E8E606
:104EA000FD080020A50A0020354B032230B51A70FA
:104EB000344B00251D70344B1D70344BFF228BB0DA
:104EC0001021044632481A700EF06CFD314A284613
:104ED000A2F120010EF0CCF9A84211DB94B100241C
:104EE0001C22214603A8012502940DF041FC2A480A
:104EF000009523462246214609F06AFCA04209DAC1
:104F0000F12404E0254809F005FD0028E7DB2046F0
:104F10000BB030BD2148009423462246214609F0BB
:104F200057FC0028ECDB1D48042302AA294609F09F
:104F3000E3FC0028E4DB194823462246022109F05D
:104F4000DBFC0028DCDB202102A80EF02BFD13483F
:104F5000202302AA042109F0CFFC0028D0DB202165
:104F600002A80EF01FFD0D48202302AA052109F01A
:104F7000C3FC0028C4DB202102A80EF00BFDC6E70D
:104F8000FD0800203F090020FE080020A40A0020A0
:104F9000A50A0020640A0020682102008E21020078
:104FA0008389202B04D102680448002109F0A4BCA5
:104FB000002067238871CB71704700BF8E210200EB
:104FC00007B58389B3F5906F06D9002067238871F0
:104FD000CB7103B05DF804FB012200920168024826
:104FE000002209F0F5FBF4E78E21020010B4029CC8
:104FF0002468242C03D95DF8044BFFF729B8152049
:105000005DF8044B704700002DE9F043054691B070
:1050100090461C4601F1FF39002900F00981571C18
:105020001A6839460023013A684609F037FE2946D6
:10503000814D11F8016B731E072B00F2F780DFE83A
:1050400013F008001300F5002D00F500EA00EF0052
:105050001B004A466846FFF795FB88F800000028C9
:1050600000F0D0800121D0E0744B00221A704A4633
:105070006846FFF79FF8F0E72B78022B05D0082B46
:1050800003D0302388F80030ECE76C4B1A786C4B77
:105090001B789A42F5D200221146E9E7062204A9BC
:1050A000684609F048FE002840F0A880012200234D
:1050B00004A809F0FAFD002840F0A080022208A907
:1050C00004A809F035FE002840F098805D4908A842
:1050D000FEF797FF002840F091805B4908A8FEF793
:1050E00090FF002840F08A8008A904A809F034FE47
:1050F000002840F083800222002304A809F0D5FD97
:1051000000287BD1012208A904A809F011FE00287B
:1051100074D14E4908A8FEF774FF00286ED108A983
:1051200004A809F019FE002868D10322002304A86E
:1051300009F0BBFD002861D1102245490DEB0200AA
:1051400009F0D2FD002859D10422002304A809F057
:10515000ACFD002852D102220CA904A809F0EBFDF5
:1051600000284BD13B490CA8FEF74BFF002845D146
:1051700015210CA809F0A7FD00283FD136490CA83D
:10518000FEF73FFF002839D100F0AEF90028D4BF68
:105190000020012000F114010CA809F094FD68BB67
:1051A0000CA904A809F0D8FD40BB0522002304A8DF
:1051B00009F07BFD10BB4FF4A062002304A809F0A6
:1051C00074FDD8B90622002304A809F06EFDA8B921
:1051D000012208A904A809F0ABFD78B90122002337
:1051E00008A809F062FD48B908A904A809F0B4FDAF
:1051F00020B904A9684609F0AFFD08B1122341E7C0
:1052000088F800000099C91B013121602E70002030
:1052100011B0BDE8F0834A466846FFF78BFC1CE7F7
:105220000120FFF741FE88F800001BE7F12329E782
:105230004FF0FF30ECE700BFA40A0020FE0800207A
:105240003F09002098210200A1210200BA2002009B
:10525000B22102006D210200A821020037B500230F
:105260000B714B718B716FF06F03CB710379802BD6
:105270000C4613D14379102B1BD140F23C530193C0
:105280000A688189006801ABFFF7BEFE019BA3801D
:10529000002810DA0023A37169230BE0F3B94379E6
:1052A000032B18D00AD8012B0FD0022B10D00023CB
:1052B000A3716D23E371002003B030BD102BFAD031
:1052C000A42BF4D100F0B6FAE2E700F0A1F9DFE791
:1052D00000F01EFADCE700F099FAD9E76E23E9E75F
:1052E0007FB500F110020C460546102110460392CE
:1052F0000EF058FB039A00942046102320210EF054
:10530000DAFA04F120062023EA181946204600960E
:105310000EF0D1FA10223146284604B0BDE87040A4
:105320000CF0BEBF10B50246044604230848012114
:1053300009F0D4FA00280ADB23680548013323600A
:1053400022460423012109F0D7FA00EAE07010BDDB
:105350008E21020070B5202304460D461B481646D8
:105360000A46042109F0BAFA002817DBF31D4FF0B2
:10537000FF3314D184F8406084F8413084F842301F
:1053800084F8433029462046FFF7AAFF2A462946DB
:1053900000200EF00DF80028F4DB002070BD16F19F
:1053A000080F10D12946204684F8406084F8413027
:1053B00084F8423084F84330FFF792FF29462846AC
:1053C0000EF0E6F8E9E71846E8E700BF8E21020094
:1053D000F0B58BB002AD06460F46144820232A468E
:1053E000042109F07BFA041E18DB1023F218202197
:1053F000284600970EF05FFA2023F2181946384627
:1054000000950EF058FA3146102228460DF086F924
:1054100004462021284624B90EF0BCFA20460BB0E1
:10542000F0BD0EF0B7FA0124F8E700BF8E210200AC
:1054300070B588B006460D460D4820236A46002107
:1054400009F04CFA041E02DA204608B070BD32465C
:105450002B46694600200DF037FF684620210EF0EC
:1054600099FA2A46294620200EF032F8EDE700BFCF
:105470008E21020010B5134614460A46014600204C
:105480000DF022FF224621462020BDE810400EF0FC
:105490001FB82DE9F0419AB0074616460D460DF1AA
:1054A000280802A91C460EF073F802AB3A463146B2
:1054B0002846CDF800800EF0B3F840224146204641
:1054C0000CF0EEFE02A820210EF064FA40201AB083
:1054D000BDE8F08101464FF490630248002209F0D4
:1054E00047B900BF8E21020007B501230DF1070265
:1054F0000221034809F0F2F903B05DF804FB00BF94
:105500008E2102001FB502460B4699B90A460C4887
:10551000022109F0F1F9002809DB08238DF80F308A
:10552000074801230DF10F02032109F0E5F905B049
:105530005DF804FB01900EF0ABFB019A1023E6E747
:105540008E2102001FB50446102308486A46022136
:1055500009F0C4F9002807DB1022214668460DF047
:10556000DDF8003818BF012004B010BD8E21020004
:1055700007B501230DF107020321054809F0AEF933
:105580000028A8BF9DF8070003B05DF804FB00BF2A
:105590008E21020007B501238DF807000DF10702E7
:1055A0000321034809F0A8F903B05DF804FB00BF2C
:1055B0008E2102002DE9F0418AB002AD80460E46F0
:1055C000124817461C462A462023052109F086F971
:1055D000002818DB102342462021284600950EF0B3
:1055E0006AF9202300943246194628460EF063F9E2
:1055F000402F07D1202320340094F2181946284662
:105600000EF059F900200AB0BDE8F0818E210200A9
:105610002DE9F0438389402BABB006460D4607D0F9
:1056200000248C716723EB7120462BB0BDE8F0831A
:1056300008F0A0FF074688B9C821022008F0A0FFA3
:1056400008F08CFF044620B96FF07A03AB71692330
:10565000E9E7384608F088FF08F0B0FFD6F8008088
:105660002E6808F120092022494621A80CF018FED6
:105670006FF0060209A919A8FFF76CFE041ED3DB20
:105680000EF0E4FA0027012168468DF800700EF054
:10569000E9FA484620210EF0E5FA404620210EF0B6
:1056A000E1FA0523337004237370402209A94FF0F7
:1056B0004408B01C06F143090CF0F2FD424619A95A
:1056C00086F8428048460CF0EBFD10484FF490639A
:1056D0003A4606F1870109F04BF8041EA4DB414667
:1056E00019A80EF0BFFA4121701C0EF0BBFA01A8F8
:1056F0000EF0C0FA04EB0801494401A8FFF798FE38
:1057000087340444AC803C468EE700BF8E21020003
:105710002DE9F043838906680D68852BC5B00746DF
:105720000C4608D06FF07F03A3716A23E371002059
:1057300045B0BDE8F08396F84030442B03D00023F9
:105740008B716723F2E706F12008202206F1610140
:10575000404606F141090CF0E1FF0028E2D106A91C
:105760004846FFF735FEC0B20028DBD1BB79072BD6
:1057700004D16FF07A03A3716923D7E708F0FAFE2A
:10578000074660B9C821022008F0FAFE08F0E6FEDC
:105790000028EED0384608F0E7FE08F00FFFD723C8
:1057A00005936FF00603029305AB0193002300936A
:1057B00001220EA94046FFF719FC07460028D8D160
:1057C0000EF044FA25210EA80EF04CFA20213046A6
:1057D0000EF048FA40460EF04DFA052216A928466A
:1057E00005350CF05DFD2B46424606A938460DF006
:1057F0006BFD202106A80EF0CDF82A462946202070
:105800000DF066FE0530A08091E7000008B50B465C
:10581000818929B100229A716722DA71002008BDBE
:1058200006225971186802491A710CF039FDF5E722
:10583000A121020010B50B46002406220A714C710A
:10584000186802490CF02CFD204610BDA121020071
:105850002DE9F84300230B714B718B716FF06F03CF
:10586000CB7143791D2B0C4617D0A42B5ED18379C5
:10587000042B01D1C5792DB16FF07903A3716A238F
:10588000E37107E02A49206805220CF009FD052391
:10589000237165710020BDE8F8838379002BEBD17B
:1058A000C779002FE8D10B6819221A700B684FF0E6
:1058B000010883F801800B6802259D700B68DD707C
:1058C0000B683A261E710B685D710B684FF0040976
:1058D00083F8069008680730FDF748FA236883F8D4
:1058E0000B90236883F80C80236841225A73236845
:1058F00003229A732368DD7323681D7423685E7422
:1059000023680D229A742368DD7423681D7523684B
:105910005E7523680E229A752368DD7523681D76EF
:1059200023685E761A2323716771B3E76D23A7E7B7
:10593000C2210200014B00221A707047C40A0020E5
:10594000034B987BA0F1FF0358425841704700BFBA
:10595000B50A002007B583795BB1012B08D06FF041
:1059600079038B716A23CB71002003B05DF804FBCF
:10597000FF23054905488B730123009300220F2361
:1059800008F026FFC017F0E7B50A0020C821020082
:1059900007B5012300930C490C481323002208F09B
:1059A00017FF01300CDB09484FF4806108F074FFE9
:1059B00001304FF0FF30A8BF002003B05DF804FBBA
:1059C0004FF0FF30F9E700BFD2210200CD210200E5
:1059D000174B37B500221A70044658B115491648BE
:1059E0000F220CF05DFCFFF7D3FF002814DA4FF014
:1059F000FF301AE0114808F08DFF0F280546EDD161
:105A00000F4808F087FF0028E8DD0B490B482B46BC
:105A1000224608F0ADFE07E001230093064907483F
:105A20000F23002208F0D4FEC01703B030BD00BF22
:105A3000C40A0020E6210200B50A0020C8210200A5
:105A4000CD2102008379042B03D1C3792BB9002027
:105A5000704713B9C2790C2A04D06FF079038B71A7
:105A60006A2304E08289012A03D88B716723CB71F2
:105A7000EDE703681A78E12A06D15B78032B0AD197
:105A8000064B01221A70E2E72AB95B78012B02D19A
:105A9000024B0222F6E76FF07D03E0E7C40A002024
:105AA00070B5C28852BA92B2B2F5806F06460D4602
:105AB00004D90020A8716723EB7117E08368B3F560
:105AC000806FF6D816490878012804D002280ED035
:105AD00000B300200AE0D1180F29EAD8296811483C
:105AE00008F046FE002812DA4FF0FF3070BD0E4974
:105AF0004C7B2CB16FF07D03AB716923EB71E8E750
:105B0000D118B1F5806FD4D829680848E8E7B368A0
:105B1000AB80DEE76FF07A03AB716923CCE700BF9F
:105B2000C40A0020C8210200B50A0020CD210200CD
:105B300037B5C28852BA92B2B2F5806F05D900204B
:105B400067238871CB7103B030BD8389B3F5806F53
:105B5000F5D80F4C2478012C03D9022C07D0002053
:105B6000F1E76FF07A038B716923CB71F7E7094C8A
:105B7000A47B14B16FF07D03F5E79D18B5F5806F38
:105B8000DDDC00940168044808F022FEC017DAE763
:105B9000C40A0020B50A0020CD21020010B5002360
:105BA0000B714B718B716FF06F03CB714379B02B1D
:105BB0000C460BD0D62B0CD0A42B0DD1FFF742FFF7
:105BC00000280BDA0023A371692306E0FFF768FFC2
:105BD000F6E7FFF7ADFFF3E76D23E371002010BD9B
:105BE00000F18D02853012F8013D0133DBB21370F4
:105BF00023B99042F7D14FF0FF3070470020704733
:105C000007B50023009301F18502082300F1850107
:105C1000024808F0DDFD03B05DF804FBF521020049
:105C200013B5034690F842200C4602F00F0293F899
:105C30004110124B012A1B78009400F14400A1F19D
:105C400002010FD10E4A0DF0DAFD1423234413F89C
:105C5000010C00F00F00235C03F07F032354204469
:105C600002B010BD022A064A03D10DF024FE202303
:105C7000ECE70DF07CFE4023E8E700BFCD0A0020F2
:105C8000C50A002073B590F8843013F00103044670
:105C90000D4615D00F4B1A78082A14D100F185064D
:105CA0000D49019230460CF039FD00280EDC0A49FE
:105CB000019A30460CF0F4FA29462046FFF7A0FF7F
:105CC000002002B070BD4FF0FF30FAE76FF0010026
:105CD000F7E700BFCD0A0020C50A00202DE9F04FEC
:105CE000DFF8A4910123B7B00646644889F8003074
:105CF0000C4608F00FFE051EC0F2BD80DFF88C8157
:105D000098F8000048BBB6F80CC0BCF1010F06D8EB
:105D10000020A0716723E37137B0BDE8F08F3168D0
:105D20000B78742B04D06FF07F03A3716A23F2E722
:105D30004A78534F531E072B3A7001D93870F2E757
:105D4000931CDBB26345E3D84E4802310CF0A8FA4D
:105D50003B78B28902339A42DAD34FF08D0AB5FB11
:105D6000FAF300250193B3689D4207D298F80070BA
:105D7000019BBB4204D8002389F80030A5805BE07A
:105D800017FB0AF73D488D233A4612A908F0F0FCAC
:105D9000002870DB9DF84820B16802F109032B440C
:105DA0008B4205D94FF0FF33A3716123E371E5E71F
:105DB00098F80030013388F80030002AD3D02368E7
:105DC00071225A5521689DF84820294405F1020B9B
:105DD0004A7020680DF1490158440CF061FA9DF8B1
:105DE000482093449DF88A2002F0F002102A10D136
:105DF0002268772102F80B1022685A440121517061
:105E000022689DF88B100BEB02030BF103059970D0
:105E1000A9E79DF8CC0010F0020502D022687C2191
:105E2000E8E7394612A8FFF72DFF002806DA6FF0E1
:105E30007D03A3716923E37100206DE72268762159
:105E400002F80B1022685A440521517022689DF80F
:105E50008B105A4412A8917025680BF1030202A915
:105E60001544FFF7DDFE0422014628460CF066FCCF
:105E70000BF1070577E74FF0FF304DE7F521020002
:105E8000CD0A0020C50A0020CF0A0020D00A002039
:105E90002DE9F04F8379A5B006460D460BB9C479BC
:105EA00034B16FF07903AB716A23EB7100200BE022
:105EB000DFF8BC902D48022389F8003008F02AFD55
:105EC000002804DA4FF0FF3025B0BDE8F08FDFF88E
:105ED000A480DFF898A08D23B0FBF3F74FF08D0B73
:105EE000B368A34206D998F80020974204D800234B
:105EF00089F80030AC80D9E78D2302FB0BF26946AC
:105F0000504608F035FC0028DCDB9DF80020B16825
:105F1000D31C23448B4205D94FF0FF33AB7161236F
:105F2000EB71E7E798F80030013388F80030002A79
:105F3000D6D02B6872221A552B689DF80020234476
:105F400001325A702B689DF84220234404F1030B60
:105F50009A7028689DF800200DF1010158440CF05A
:105F60009FF99DF800405C44B8E700BFF5210200AE
:105F7000CF0A0020D00A0020024A00231370024AF0
:105F800013707047CF0A0020CE0A002010B586B0EB
:105F90000446FFF7F1FF68B100230124184800947C
:105FA0001A46194608F014FC00280ADA4FF0FF30B0
:105FB00006B010BD124808F0ADFC0028ECDB20460E
:105FC000F6E74FF0FF3303930D48042303AA21465D
:105FD00008F092FC0028E9DB002309481A46022158
:105FE00008F08AFC0028E1DB082104A80DF0DAFCA7
:105FF0000348082304AA032108F07EFCC017D7E752
:10600000F5210200F0B5B7B04FF0FF33009305461D
:106010000E46314804236A46012108F05FFC00283F
:1060200006DB009C8D27B4FBF7F307FB134313B18A
:106030006FF0010045E0284808F06CFC0028F7DB11
:106040008442F5D224483B46224612A908F090FB30
:10605000002802DA4FF0FF3033E09DF84830002B83
:10606000E6D09DF88A3003F0F003202BF2D0102BFD
:1060700010D112A8FFF7B4FD0028EBDB214612A8CF
:10608000FFF7BEFD154B164808220DF1CD011A7021
:106090000CF006F902A912A8FFF7C2FD042201467E
:1060A0000DEB02000CF0FCF89DF88B20531CB34262
:1060B000D0D80023AB54019B0A211BBA013A02D26B
:1060C000002037B0F0BDB3FBF1F001FB10333033EB
:1060D000AB540346F2E700BFF5210200CD0A0020D1
:1060E000C50A00202DE9F04F2DED028B0023B34FA0
:1060F0000B714B718B716FF06F03CB710C4639785C
:106100004379B9B0064651B9A42B00F04283A32BC2
:1061100000F0DE826FF07D03A371692339E0552B17
:1061200000F09B8316D8013BDAB2042A03D900237E
:10613000A3716D232DE0042BF9D801A252F823F0AE
:106140007361000025630000C56300002F6100003B
:106150006F64000003F15F02D2B2042AE7D8A23BC9
:10616000032B00F2EB81DFE813F0F101B30214031B
:106170006F03837923B990F807A0BAF1000F02D01A
:106180006FF0790388E08189012904D80023A37185
:106190006723E37179E205682B78712B02D06FF0E9
:1061A0007F0379E06F787B1E3F2BF8D8BB1D9942A7
:1061B0001FFA87F8EADD08F10203EB5C732BEED1DE
:1061C00008F1030315F803B0ABF103033F2BE6D846
:1061D00008F1040805EB0803039315F8083003F0F1
:1061E000F000102801D02028D9D103F00F03013B83
:1061F000022BD4D8039B5B78043B042BCFD8D84424
:1062000041450ED915F80830782B0AD108F1010361
:106210009942BBD915F803A01AF0FC0FBFD108F1C1
:10622000020800234145CDE904331DD915F8083093
:106230007A2BABD108F101039BB29942A6D9EA5C53
:10624000042AACD11028AAD108F105039BB29942C7
:106250009CDD08F1020115FA81F105A80CF020F887
:1062600008F106081FFA88F8B38943458ED15448CF
:1062700008F050FB0028C0F2C0808D230235B0FB2F
:10628000F3F64FF00009B0464E4508D1464527D1F8
:10629000632E25D96FF07B03A3716A2379E78D23E1
:1062A000474803FB09F214A908F062FA0028C0F27B
:1062B000A4809DF85030BB4209D13A4629460DF1E1
:1062C00051000CF02BFA10B96FF07A0324E79DF817
:1062D000503013B9464508BFC84609F10109D3E754
:1062E0003A4629460DF151008DF850700BF0D8FF59
:1062F00003998DF891B05A460DF192000BF0D0FF42
:10630000082204A90DF1D5008DF8D4A00BF0C8FF28
:10631000002300938D2303FB08F214A9284808F0FA
:1063200057FA67E08379002B7FF42AAFC579002DF7
:106330007FF426AF8289012A7FF628AF07683B7871
:10634000712B7FF42CAF97F8018008F1FF333F2BBE
:106350003FF625AF08F10203DBB293423FF616AFDA
:10636000174808F0D7FA002847DBDFF854B00237A7
:106370004FF08D09B0FBF9F6AE4202D16FF07B030E
:10638000CAE609FB05FA8D23524614A9584608F0BF
:10639000EFF9002831DB9DF8503043450CD14246DF
:1063A00039460DF151000CF0B9F928B98DF85000BB
:1063B00000908D235246B0E70135DDE7CE0A00207C
:1063C000F52102008379002B7FF4DAAEC379002B2C
:1063D0007FF4D6AE818901297FF6D8AE05682B7887
:1063E000732B7FF4DCAE6B784BB91A46B4480221AC
:1063F00008F082FA002880F2488100238CE6112BF5
:106400007FF4CDAE15297FF6C1AEEB7C742B7FF403
:10641000C6AE2B7D03F11707B9421A467FF6B6AE1A
:1064200003F11500285C75287FF4B9AE03F116005E
:1064300015F80080B8F1140F7FF4B1AE2B32914201
:106440007FF4A4AE0DF15009EE1C05F115021021E8
:106450003046CDF800900DF0D2F94246E919484691
:106460000CF05CF9002889D110233246BEE783790D
:10647000002B7FF485AEC379002B7FF481AE828937
:10648000022A7FF683AE05682B78712B7FF487AEE6
:106490006E78731E3F2B3FF682AE06F104094A4523
:1064A000B3B27FF673AE991C695C71297FF477AE45
:1064B0000333EF5C7B1E3F2B3FF671AE09EB070306
:1064C0009A42FFF463AE7E4808F024FA002894DB79
:1064D000AB1C08EE103A4FF08D0B4FF00008B0FBEC
:1064E000FBF30393039B43453FF448AF0BFB08FAD0
:1064F00073488D23524614A908F03AF90028FFF694
:106500007CAF9DF85030B34202D008F10108E9E7B2
:1065100018EE101A32460DF151000CF0FFF8002869
:10652000F3D103903A4605EB09010DF151008DF8C6
:1065300050700BF0B5FE039B00933AE7614B0022CD
:106540001A7021463046FFF7A3FC53E796F806A0E1
:10655000BAF1000F7FF414AEF379012B3FF610AEC1
:10656000B389022B7FF612AE3268117871297FF45D
:1065700016AE92F8018008F1FF323F2A3FF60FAEC7
:1065800008F102094B451FFA88F5FFF4FFAD4C48AE
:1065900008F0C0F9071EFFF630AF8D23DFF820B1F9
:1065A000B7FBF3F75F43BA453FF4E8AE8D2352469D
:1065B00014A9584608F0DCF80028FFF61EAF9DF835
:1065C0005030434502D00AF18D0AECE7316842466B
:1065D00002310DF151000CF0A1F80028F3D19DF823
:1065E000D4309B0708D507F0C5FF28B907F0FCFF9A
:1065F000013801287FF68EAD9DF8923003F0F0034C
:10660000202B48D1B389EA1C93427FF6BFAD316895
:1066100011F8090074287FF4C2AD8A5C2A4F501E1D
:1066200007283A7002D900233B70B8E50435A81852
:106630008342FFF6ABAD294424480BF031FE3A7893
:10664000B3891544AB42FFF4A1AD514614A8FFF73E
:1066500019FB0028FFF65EAD236876221A702368C6
:1066600005225A7023689DF893209A7004A914A8F3
:106670002568FFF7D5FA03350146042228460BF0BA
:106680000FFE0723237100236371002039B0BDEC96
:10669000028BBDE8F08F102BDED114A8FFF7A0FA13
:1066A0000028FFF611AE514614A8FFF7A9FA064BD1
:1066B000064808220DF1D5011A700BF0F1FDCBE769
:1066C000F5210200D00A0020CD0A0020C50A0020D2
:1066D000B379002B7FF454ADF379002B7FF450ADE8
:1066E000B389022B7FF652AD35682A78752A7FF47C
:1066F00056AD6A78142A7FF452AD182B7FF646AD5A
:10670000AA7D742A7FF44BAD95F8178008F1180222
:1067100093427FF43BAD10237C480DEB0302022132
:1067200008F0DCF80028FFF668AE3FF427AE102131
:1067300014AB0DEB0100764A009308230DF05FF8CF
:106740001422A91C14A80BF0E9FF064600287FF4C8
:1067500015AE01233B70102114AB05F118020DEBAF
:106760000100009343460DF04AF810210DEB0100A3
:106770000DF010F9236875221A70236814225A70DC
:10678000206814A902300BF08BFD1623237166716B
:106790007BE7B379042B46D1F579002D7FF4F0AC7B
:1067A0005C4B18689A8814909B79ADF8542014A912
:1067B000072220688DF856300BF072FD226853488E
:1067C00008230732032108F089F80028FFF615AEE8
:1067D0000F2323714D486571012304AA022108F09B
:1067E0007DF80028FFF609AE02D101233B704CE78B
:1067F000474808210DF0D6F8236845497422DA731A
:10680000236808221A74206811300BF049FD2368B0
:106810007B225A762268012393762268D376A38856
:106820000D33A38031E7002B7FF4AAAC00293FF49D
:1068300071AC394A1370F379012B3FF6A1AC2146B4
:106840003046FFF74BFAD5E5344B1B78022B3FF46B
:1068500078AE012B7FF438ADEDE78379002B7FF420
:106860008FACC779002F7FF48BAC8289012A7FF629
:106870008DACD0F8009099F80030712B7FF48FAC7C
:1068800099F8018008F1FF333F2B3FF688AC08F1FF
:106890000203DBB293423FF679AC1C4808F03AF8A9
:1068A000051EFFF6AAAD8D233E46184FB5FBF3F546
:1068B00009F102095D43B5423FF460AD8D233246D4
:1068C00014A93846049607F053FF0028FFF695AD4B
:1068D0009DF85030434501D08D36ECE7424649469D
:1068E0000DF151000BF01AFF0028F5D19DF8923000
:1068F00003F0F003202B3FF4E7AC0448042304AA80
:10690000012107F0F9FFC01774E500BFF52102006F
:10691000C50A0020FA210200D00A0020CF0A002078
:106920000A460D23022107F0D9BF13460A46022169
:1069300007F0E2BF0A461423002107F0CFBF0A4642
:106940001423002107F0D8BF0A460423012107F0D1
:10695000C5BF0A460423012107F0CEBF07B50123B6
:106960000DF10702032107F0B9FF0028A8BF9DF829
:10697000070003B05DF804FB07B501238DF807108D
:106980000DF10702032107F0B7FF03B05DF804FB28
:1069900070B51346154600220E4607F0E9FE041EA8
:1069A00005DA294630460CF0F5FF204670BD00247C
:1069B000FBE707B5134601220092002207F008FF0B
:1069C00000EAE07003B05DF804FB000007B5084B77
:1069D00008481B88ADF8043000238DF8063001AA62
:1069E0000323932107F088FFC01703B05DF804FB71
:1069F0004922020001220200F8B5114C06460D465C
:106A000000276378AB4208D12A46A11C30460BF020
:106A100085FE10B994F90000F8BD6278531CAB42B2
:106A200005D1A11C30460BF079FE0028F2D00137C9
:106A3000082F04F10D04E4D14FF0FF30ECE700BF64
:106A4000B62202002DE9F04F2DED028B184B9D78F8
:106A5000ADF2345D04468B4665B96FF07D038B71F2
:106A600069238BF8073028460DF2345DBDEC028BAC
:106A7000BDE8F08F83793F2B02D1C379FF2B08D07B
:106A80006FF079038BF806306A238BF80730002506
:106A9000E9E781890668012904D800258BF80650AA
:106AA0006723DEE733784D2B04D06FF07F03E9E7EF
:106AB0004B000020013604AB05AA0139304607F02F
:106AC000DFFC059B002BF0D10128EED9049BA189A6
:106AD0005A1C02448A42E0D1F518F35C5C33DBB205
